:020000040800F2
:10000000A00600205502000893020008950200088F
:1000100097020008990200089B02000800000000F7
:100020000000000000000000000000009D02000829
:100030009F02000800000000A102000885070008D8
:10004000A5020008A5020008A5020008A5020008F4
:10005000A5020008A5020008A5020008A5020008E4
:10006000A5020008A5020008A5020008A5020008D4
:10007000A5020008A5020008A5020008A5020008C4
:10008000A5020008A50200085D030008A5020008FB
:10009000A5020008A5020008A5020008A5020008A4
:1000A000A5020008A5020008A5020008A502000894
:1000B000A5020008A5020008A5020008A502000884
:1000C000A5020008A5020008A5020008A502000874
:1000D000A5020008A5020008A5020008A502000864
:1000E00055060008A5020008A5020008A5020008A0
:1000F000A5020008A5020008A5020008A502000844
:10010000A5020008A5020008A5020008A502000833
:10011000A5020008A5020008A5020008A502000823
:10012000A5020008A5020008A5020008A502000813
:10013000A5020008A5020008A5020008A502000803
:10014000A5020008A5020008A5020008A5020008F3
:10015000A5020008A5020008A5020008A5020008E3
:10016000A5020008A5020008A5020008A5020008D3
:10017000A5020008A5020008A50200080000000072
:10018000A5020008A502000800F002F800F052F8ED
:1001900014A696E8000CB244B344DA4501D100F04D
:1001A00049F8BAE80F000FA696E83000A5EB040561
:1001B00004EB0607AAEB0704A7F101074FEA1515A0
:1001C0004FEA3414A4F10104AC4201D300F032F838
:1001D00013F0010F18BFFB1A43F0010300F001F800
:1001E000DBE71847340A0000540A0000103A24BF25
:1001F00078C878C1FAD8520724BF30C830C144BF8C
:1002000004680C6070470000704700000023002461
:1002100000250026103A28BF78C1FBD8520728BF16
:1002200030C148BF0B6070471FB500F0D9FC1FBD3F
:1002300010B510BD00F057F81146FFF7F5FF00F0BC
:10024000B3FC00F075F803B4FFF7F2FF03BC00F055
:100250007DF8000017481849184B99423CBF50F8E8
:10026000042B41F8042BF8D3154B16494FF000022C
:100270008B4238BF43F8042BFAD3DFF84C000168F7
:1002800041F470010160BFF34F8FBFF36F8F0F48D0
:100290000047FEE7FEE7FEE7FEE7FEE7FEE7FEE7D4
:1002A000FEE7FEE7FEE7000009480A490A4A0B4B51
:1002B00070470000380C00080000002028000020D3
:1002C00028000020A006002088ED00E08901000839
:1002D000A0000020A0060020A0020020A002002014
:1002E000704770477047754600F02CF8AE46050021
:1002F0006946534620F00700854618B020B5FFF741
:10030000D3FFBDE820404FF000064FF000074FF04C
:1003100000084FF0000BAC46ACE8C009ACE8C009DF
:10032000ACE8C009ACE8C00921F007018D46704770
:1003300010B50446AFF300802046BDE81040FFF73B
:1003400082BF0000004870472800002001491820A3
:10035000ABBEFEE726000200704700000020C5F299
:10036000040000684007002808D5FFE70021C5F217
:100370000401086840F004000860FFE740F2001044
:10038000C5F2040000684007002809D5FFE740F2E5
:100390000011C5F20401086840F004000860FFE79E
:1003A000704700000021C5F20401086840F0040015
:1003B00008600821C5F20401086840F004000860E4
:1003C000FFE70020C5F2040000684007002801D4C0
:1003D000FFE7F6E70021C5F20401086840F00400D9
:1003E00008604020C5F20400006880B27047000039
:1003F00040F20011C5F20401086840F004000860F2
:1004000040F20811C5F20401086840F004000860D9
:10041000FFE740F20010C5F2040000684007002822
:1004200001D4FFE7F5E740F20011C5F204010868C6
:1004300040F00400086040F24010C5F2040000687B
:1004400080B270470421C4F20101086840F4807052
:10045000086040F20831C5F20401086840F48000E9
:100460000860086820F440300860086840F4803074
:100470000860086820F470100860086820F01F0009
:100480000860704780B541F24C01C4F2020108686F
:1004900040F40050086041F22C01C4F202010868E7
:1004A00040F4005008600868086820F400500860B4
:1004B00000F086F8FFF7C6FF0020C5F2040000F048
:1004C0009DF80C21C5F20401086842F238029043FD
:1004D00008603022C5F20402106820F00F0010609E
:1004E000106840F4C0701060B022C5F204021068B9
:1004F00020F0400010601422C5F20402106820F4BD
:100500007C001060106840F4C0101060086820F48F
:10051000406008600821C5F20401086840F001004D
:100520000860FFE70020C5F204000068C00708B9B2
:10053000FFE7F7E740F20010C5F2040000F05EF8B4
:1005400040F20C11C5F20401086842F238029043EF
:10055000086040F23012C5F20402106820F4F8601E
:100560001060106840F41070106040F2B012C5F2D4
:100570000402106820F40070106040F21412C5F2FA
:100580000402106820F060501060106840F0405085
:100590001060086820F44060086040F20811C5F25D
:1005A0000401086840F001000860FFE740F2001015
:1005B000C5F204000068C00708B9FFE7F6E780BD90
:1005C00041F24C01C4F20201086840F001000860E9
:1005D0004FF09041086840F44F7008600C21C4F659
:1005E0000001086820F44F7008602C21C4F6000157
:1005F000086840F0160008607047000082B0019063
:10060000019880688000002806D5FFE70199886876
:1006100020F000508860FFE70199886840F0805022
:1006200088604FF4C8600090FFE70098411E009179
:1006300008B1FFE7F9E70199886840F00040886059
:10064000FFE701988068C00F08B1FFE7F9E702B043
:100650007047000080B540F21440C4F20100006809
:100660008004002813D5FFE740F21441C4F20101D1
:10067000086840F40050086040F29401C2F20001A2
:10068000087880F00100087000F008FAFFE780BDEC
:1006900080B500F07FF8FFF7F5FE00F007F800F0F6
:1006A00047FA00F067FA00F001FA80BD83B041F22A
:1006B0004C01C4F20201086840F004000860002008
:1006C0008DF80B008DF80B00FFE79DF80B00092853
:1006D00056DCFFE79DF80B1040F20000C2F200006C
:1006E00050F8210001909DF80B1040F60E40C0F626
:1006F0000000405C8DF803009DF80B1040F6FA30C6
:10070000C0F6000030F81100ADF800009DF80300BD
:100710004100032000FA01F3019A11689943116026
:100720009DF803104A00012101FA02FC019B1A689E
:1007300042EA0C021A609DF8032001FA02F3019AC2
:100740005168994351609DF80310490000FA01F384
:10075000019A9168994391609DF80310490000FA4D
:1007600001F20199C8689043C860BDF80000019982
:100770008862FFE79DF80B0001308DF80B00A4E7BD
:1007800003B0704740F28801C2F2000108680130EE
:100790000860704783B042F20001C4F202010868A9
:1007A00020F007000860086840F00200086041F28D
:1007B0000001C4F20201086840F480700860FFE79D
:1007C00041F20000C4F2020000684005002801D494
:1007D000FFE7F5E71020029041F20401C4F20201A4
:1007E000086820F0F8500860029A086840EA026041
:1007F000086041F20001C4F20201086820F0807034
:100800000860FFE741F20000C4F2020000688001C6
:10081000002801D5FFE7F5E741F20C01C4F202011F
:100820000191086820F003000860086840F00200A9
:1008300008600868142262F30E200860086801222C
:1008400062F306100860086820F0C060086008685D
:1008500040F08070086041F20001C4F202010868B3
:1008600040F080700860FFE741F20000C4F202002F
:1008700000688001002801D4FFE7F5E741F2080194
:10088000C4F20201086820F003000860086840F024
:1008900003000860FFE741F20800C4F202000068AC
:1008A00000F00C000C2801D0FFE7F4E741F208014A
:1008B000C4F20201086820F0F0000860086820F423
:1008C000E0600860086820F46050086041F20001B0
:1008D000C4F20201086820F080600860FFE741F27E
:1008E0000000C4F2020000684001002801D5FFE7C3
:1008F000F5E741F21001C4F202010091086820F40A
:10090000FE400860086840F4C0500860086840F481
:1009100000300860086840F48030086041F200014F
:10092000C4F20201086840F080600860FFE741F20D
:100930000000C4F2020000684001002801D4FFE773
:10094000F5E741F28801C4F20201086820F4400092
:10095000086041F26001C4F20201086840F400102E
:10096000086003B07047000080B582B0FFF71AFD41
:10097000ADF80600BDF8060000EE100AB8EE400A19
:1009800040F28C00C2F2000080ED000ABDF80600C3
:1009900000EE100AB8EE400A40F29000C2F20000E9
:1009A00080ED000A90ED000A9FED161A80EE010A14
:1009B0009FED151A20EE010A8DED000A9DED000A4B
:1009C0009FED121A20EE011A21EE001A9FED102A57
:1009D00020EE022A22EE002A21EE001A31EE021A3F
:1009E0009FED0C2A20EE020A30EE010A9FED0A1A52
:1009F00030EE010A40F29800C2F2000080ED000AD9
:100A000002B080BD00F07F4533331340E17AB0413E
:100A1000CDCC3143CD8CB043295CA54180B582B0AB
:100A2000FFF7E6FCADF80600BDF8060000EE100A80
:100A3000B8EEC00A9FED0B1A80EE010A9FED0A1A6C
:100A400020EE010A8DED000ABDF8060000EE100A46
:100A5000B8EE400A40F28C00C2F2000080ED000ABD
:100A600002B080BD00F07F453333134081B08DF874
:100A700003009DF9030000280ED4FFE79DF9031041
:100A800001F01F02012090404A094EF20011CEF2FF
:100A9000000141F82200FFE701B070471421C4F6BD
:100AA0000001086880F020000860704780B582B0BF
:100AB00041F26001C4F20201086840F001000860E0
:100AC000032001900420009000990F2000FA01F308
:100AD000019A0821C4F2010151F82200984341F81B
:100AE0002200009A022000FA02F3019A51F8220033
:100AF000184341F8220040F20041C4F201010868A5
:100B000040F40050086040F20841C4F20101086856
:100B100040F40050086040F20C41C4F20101086842
:100B200020F4005008602820FFF7A0FF02B080BD2D
:100B300041F24C01C4F20201086840F00100086073
:100B40004FF09041086820F440600860086840F465
:100B5000806008600421C4F60001086820F02000CD
:100B600008600C21C4F60001086820F440600860A9
:100B70007047000041F24C01C4F20201086840F0E5
:100B80000400086040F60001C4F60001086820F087
:100B90004060086040F60C01C4F60001086820F0CF
:100BA000406008607047000080B582B0002000906F
:100BB0000190FFF76DFD009840F29401C2F2000130
:100BC0000870FFE740F29400C2F20000007818B904
:100BD000FFE7FFF7C9FE02E0FFF720FFFFE7F1E7BD
:100BE000F1EE100A4FF6FF71C0F2C03120EA0100A9
:100BF00040F04070E1EE100A704704000800100059
:100C00002000400000010002000400080010020360
:100C100004050608090A0B0C380C00080000002027
:100C200028000000EC010008600C000828000020EB
:100C3000780600000C020008000800480008004880
:100C40000008004800080048000800480008004864
:100C50000008004800080048000800480008004854
:040000050800018965
:00000001FF
