:020000040800F2
:10000000A806002055020008930200089502000887
:1000100097020008990200089B02000800000000F7
:100020000000000000000000000000009D02000829
:100030009F02000800000000A1020008F10700086C
:10004000A5020008A5020008A5020008A5020008F4
:10005000A5020008A5020008A5020008A5020008E4
:10006000A5020008A5020008A5020008A5020008D4
:10007000A5020008A5020008A5020008A5020008C4
:10008000A5020008A5020008A5020008A5020008B4
:10009000A5020008A5020008A5020008A5020008A4
:1000A000A5020008A5020008A5020008A502000894
:1000B000A5020008A5020008A5020008A502000884
:1000C000A5020008A5020008A5020008A502000874
:1000D000A5020008A5020008A5020008A502000864
:1000E0000D060008A5020008A5020008A5020008E8
:1000F000A5020008A5020008A5020008A502000844
:10010000A5020008A5020008A5020008A502000833
:10011000A5020008A5020008A5020008A502000823
:10012000A5020008A5020008A5020008A502000813
:10013000A5020008A5020008A5020008A502000803
:10014000A5020008A5020008A5020008A5020008F3
:10015000A5020008A5020008A5020008A5020008E3
:10016000A5020008A5020008A5020008A5020008D3
:10017000A5020008A5020008A50200080000000072
:10018000A5020008A502000800F002F800F052F8ED
:1001900014A696E8000CB244B344DA4501D100F04D
:1001A00049F8BAE80F000FA696E83000A5EB040561
:1001B00004EB0607AAEB0704A7F101074FEA1515A0
:1001C0004FEA3414A4F10104AC4201D300F032F838
:1001D00013F0010F18BFFB1A43F0010300F001F800
:1001E000DBE718478C0E0000AC0E0000103A24BF6D
:1001F00078C878C1FAD8520724BF30C830C144BF8C
:1002000004680C6070470000704700000023002461
:1002100000250026103A28BF78C1FBD8520728BF16
:1002200030C148BF0B6070471FB500F005FF1FBD10
:1002300010B510BD00F057F81146FFF7F5FF00F0BC
:1002400083FE00F075F803B4FFF7F2FF03BC00F083
:100250007DF8000017481849184B99423CBF50F8E8
:10026000042B41F8042BF8D3154B16494FF000022C
:100270008B4238BF43F8042BFAD3DFF84C000168F7
:1002800041F470010160BFF34F8FBFF36F8F0F48D0
:100290000047FEE7FEE7FEE7FEE7FEE7FEE7FEE7D4
:1002A000FEE7FEE7FEE7000009480A490A4A0B4B51
:1002B0007047000090100008000000202800002077
:1002C00028000020A806002088ED00E08901000831
:1002D000A8000020A8060020A8020020A8020020F4
:1002E000704770477047754600F02CF8AE46050021
:1002F0006946534620F00700854618B020B5FFF741
:10030000D3FFBDE820404FF000064FF000074FF04C
:1003100000084FF0000BAC46ACE8C009ACE8C009DF
:10032000ACE8C009ACE8C00921F007018D46704770
:1003300010B50446AFF300802046BDE81040FFF73B
:1003400082BF0000004870472800002001491820A3
:10035000ABBEFEE7260002007047000081B0082017
:10036000C5F2040000688000002808D5FFE70821D6
:10037000C5F20401086820F000500860FFE708217A
:10038000C5F20401086840F0805008604FF4C8606E
:100390000090FFE70098411E009108B1FFE7F9E7E0
:1003A0000821C5F20401086840F000400860FFE73A
:1003B0000820C5F204000068C00F08B1FFE7F7E7A6
:1003C00001B070470421C4F20101086840F4807054
:1003D000086040F20831C5F20401086840F480006A
:1003E0000860086820F440300860086840F48030F5
:1003F0000860086820F470100860086820F01F008A
:100400000860704780B541F24C01C4F202010868EF
:1004100040F40050086041F22C01C4F20201086867
:1004200040F4005008600868086820F40050086034
:1004300000F044F8FFF7C6FFFFF790FF0C21C5F26C
:100440000401086842F23802904308603022C5F285
:100450000402106820F00F001060106840F4A070D3
:100460001060B022C5F20402106820F02000106075
:100470001422C5F20402106847F6FF73CCF2E07351
:100480001840106010680023C3F21B03184310606B
:10049000086820F4406008600821C5F2040108687B
:1004A00040F001000860FFE70020C5F2040000688A
:1004B000C00708B9FFE7F7E780BD000041F24C0133
:1004C000C4F20201086840F0010008604FF090415A
:1004D000086840F20F32104308600C21C4F6000196
:1004E0000868904308602C21C4F60001086840F0B9
:1004F00013000860704700000021C5F2040108687D
:1005000040F0040008600821C5F20401086840F0CA
:1005100004000860FFE70020C5F2040000684007FF
:10052000002801D4FFE7F6E70021C5F204010868BE
:1005300040F0010008604020C5F20400006880B26D
:100540007047000081B08DF803009DF80300052876
:100550000BD0FFE79DF80300062806D0FFE79DF8C3
:100560000300092801D0FFE74EE0FFE70820C5F2AD
:10057000040000684007002801D5FFE7F6E73021B6
:10058000C5F20401086820F4F86008609DF80320B3
:10059000086840EA821008609DF80310012000FA04
:1005A00001F2B021C5F204010868904308601421EB
:1005B000C5F20401086847F6FF72CCF2E072104001
:1005C00008609DF80300052808D1FFE71421C5F253
:1005D0000401086840F44030086015E09DF803000D
:1005E000062808D1FFE71421C5F20401086840F489
:1005F000C010086007E01421C5F20401086840F04B
:1006000040500860FFE7FFE701B0704780B540F257
:100610001440C4F201000068800400282DD5FFE7D3
:1006200040F21441C4F20101086840F4005008602F
:1006300040F29801C2F200010878013045F25652AA
:10064000C5F25552A0FB023202EB4202801A08703A
:10065000002000F02DF8012000F02AF8032000F01F
:1006600027F8042000F024F8052000F021F80620E7
:1006700000F01EF800F052FBFFE780BD80B500F0EF
:10068000DDF8FFF7BFFE00F047F800F091FB00F047
:10069000F3FB00F04BFB00F0D9FB00F0ABFB00F0EC
:1006A00005FC40F29801C2F200010020087080BDF4
:1006B00081B08DF803009DF80300092810DCFFE7E6
:1006C0009DF8032041F25200C0F6000030F81200FD
:1006D00040F20001C2F2000151F822108862FFE7E7
:1006E00001B0704781B08DF803009DF80300092820
:1006F00010DCFFE79DF8032041F25200C0F6000035
:1007000030F8120040F20001C2F2000151F822104C
:100710008861FFE701B0704783B041F24C01C4F239
:100720000201086840F00400086000208DF80B000A
:100730008DF80B00FFE79DF80B00092856DCFFE75A
:100740009DF80B1040F20000C2F2000050F82100AA
:1007500001909DF80B1041F26600C0F60000405C6D
:100760008DF803009DF80B1041F25200C0F6000016
:1007700030F81100ADF800009DF80300410003209F
:1007800000FA01F3019A1168994311609DF8031072
:100790004A00012101FA02FC019B1A6842EA0C029C
:1007A0001A609DF8032001FA02F3019A51689943F7
:1007B00051609DF80310490000FA01F3019A916815
:1007C000994391609DF80310490000FA01F20199E4
:1007D000C8689043C860BDF8000001998862FFE7CF
:1007E0009DF80B0001308DF80B00A4E703B07047B3
:1007F00040F29000C2F2000001680131016000681F
:1008000040F28801C2F200010968401A41F28831C1
:10081000884211D3FFE740F29901C2F200010120A2
:10082000087040F29000C2F20000006840F28801B7
:10083000C2F200010860FFE77047000083B042F297
:100840000001C4F20201086820F00700086008688F
:1008500040F00200086041F20001C4F202010868A1
:1008600040F480700860FFE741F20000C4F202002B
:1008700000684005002801D4FFE7F5E7102002904A
:1008800041F20401C4F20201086820F0F850086047
:10089000029A086840EA0260086041F20001C4F26E
:1008A0000201086820F080700860FFE741F2000054
:1008B000C4F2020000688001002801D5FFE7F5E7D7
:1008C00041F20C01C4F202010191086820F003001A
:1008D0000860086840F0020008600868142262F3AB
:1008E0000E2008600868012262F30610086008689C
:1008F00020F0C0600860086840F08070086041F235
:100900000001C4F20201086840F080700860FFE74F
:1009100041F20000C4F2020000688001002801D406
:10092000FFE7F5E741F20801C4F20201086820F090
:1009300003000860086840F003000860FFE741F228
:100940000800C4F20200006800F00C000C2801D07E
:10095000FFE7F4E741F20801C4F20201086820F061
:10096000F0000860086820F4E0600860086820F47F
:100970006050086041F20001C4F20201086820F0F2
:1009800080600860FFE741F20000C4F202000068E6
:100990004001002801D5FFE7F5E741F21001C4F25C
:1009A00002010091086820F4FE400860086840F4E5
:1009B000C0500860086840F400300860086840F4DF
:1009C0008030086041F20001C4F20201086840F082
:1009D00080600860FFE741F20000C4F20200006896
:1009E0004001002801D4FFE7F5E741F28801C4F295
:1009F0000201086820F44000086041F26001C4F27E
:100A00000201086840F40010086003B0704700005D
:100A100080B582B00520FFF795FDFFF76DFD00EE74
:100A2000100AB8EEC00A40F29400C2F20000009032
:100A300080ED000A90ED000A9FED361A80EE010A63
:100A40009FED351A20EE010A8DED010A90ED000AA6
:100A50009FED321A20EE010A90ED001A20EE010AF5
:100A600090ED002A90ED001A9FED2D3A21EE031A29
:100A700090ED003A21EE031A20EE020A30EE011A40
:100A800090ED000A9FED272A20EE020A30EE010ABF
:100A90009FED251A30EE010A40F29C00C2F20000E0
:100AA00080ED000A90ED000A9FED201AB4EE410A95
:100AB000F1EE10FA04DDFFE70020FFF713FEFFE779
:100AC00040F29C00C2F2000090ED000A9FED181A5F
:100AD000B4EE410AF1EE10FA04DDFFE70120FFF762
:100AE00001FEFFE740F29C00C2F2000090ED000A18
:100AF0009FED0E1AB4EE410AF1EE10FA07DAFFE7A5
:100B00000020FFF7D5FD0120FFF7D2FDFFE702B07F
:100B100080BD00BF00F07F453333134033F05C32BB
:100B2000F5410538BEB95C3EF7F5974100004843F2
:100B30000000FA4380B584B00920FFF703FDFFF7FA
:100B4000DBFC00EE100AB8EEC00A40F29400C2F2DC
:100B5000000080ED000A90ED000A9FED311A80EE52
:100B6000010A9FED301A20EE010A8DED030A9DED7A
:100B7000030ABFEE001A30EE010A9FED2B1A80EE39
:100B8000010A8DED020A9DED020AB2EE021A20EE74
:100B9000010AB1EE041A80EE010A9FED241A30EE2C
:100BA000010A8DED010A9DED010AB3EE071A30EE40
:100BB000010A40F2A000C2F2000080ED000A90EDB0
:100BC000000A9FED1B1AB4EE410AF1EE10FA07DAA3
:100BD000FFE70520FFF786FD0620FFF769FD1CE013
:100BE00040F2A000C2F2000090ED000A9FED101A42
:100BF000B4EE410AF1EE10FA07DDFFE70520FFF73A
:100C000057FD0620FFF76EFD06E00520FFF750FDBB
:100C10000620FFF74DFDFFE7FFE704B080BD00BFF2
:100C200000F07F45CDCC0C40AE47E1BD0000004256
:100C30000000704280B50620FFF784FCFFF75CFCE3
:100C400000EE100AB8EEC00A40F29400C2F20000B2
:100C500080ED000A90ED000A9FED211AB4EE410AE2
:100C6000F1EE10FA07DAFFE70320FFF73BFD04205F
:100C7000FFF738FD32E040F29400C2F2000090ED40
:100C8000000A9FED181AB4EE410AF1EE10FA07DAE5
:100C9000FFE70320FFF726FD0420FFF723FD1CE0FC
:100CA00040F29400C2F2000090ED000A9FED0E1A8F
:100CB000B4EE410AF1EE10FA07DAFFE70320FFF77E
:100CC00011FD0420FFF7F4FC06E00320FFF7F0FC21
:100CD0000420FFF7EDFCFFE7FFE7FFE780BD00BF63
:100CE0000000FA4300803B450040674581B08DF825
:100CF00003009DF9030000280ED4FFE79DF90310BF
:100D000001F01F02012090404A094EF20011CEF27C
:100D1000000141F82200FFE701B070471421C4F63A
:100D20000001086880F020000860704780B582B03C
:100D300041F26001C4F20201086840F0010008605D
:100D4000032001900420009000990F2000FA01F385
:100D5000019A0821C4F2010151F82200984341F898
:100D60002200009A022000FA02F3019A51F82200B0
:100D7000184341F8220040F20041C4F20101086822
:100D800040F40050086040F20841C4F201010868D4
:100D900040F40050086040F20C41C4F201010868C0
:100DA00020F4005008602820FFF7A0FF02B080BDAB
:100DB00041F24C01C4F20201086840F001000860F1
:100DC0004FF09041086820F440600860086840F4E3
:100DD000806008600421C4F60001086820F020004B
:100DE00008600C21C4F60001086820F44060086027
:100DF0007047000041F24C01C4F20201086840F063
:100E0000010008604FF09041086820F440500860ED
:100E1000086840F4005008602021C4F6000108680A
:100E200020F070600860086840F0007008600421DD
:100E3000C4F60001086820F0400008600C21C4F6E8
:100E40000001086820F44050086070474EF2140119
:100E5000CEF2000143F67F00C0F2010008604EF2BE
:100E60001801CEF20001002008604EF21001CEF20F
:100E7000000107200860704741F24C01C4F20201F2
:100E8000086840F00400086040F60001C4F6000164
:100E9000086820F04060086040F60C01C4F60001CC
:100EA000086820F0406008607047000041F2580177
:100EB000C4F20201086840F00200086040F22841D4
:100EC000C4F2000140F23F60086040F22C41C4F2DD
:100ED000000140F2E730086040F21841C4F200011E
:100EE000086820F070000860086840F06000086042
:100EF000086840F00800086040F22041C4F2000198
:100F0000086820F002000860086840F001000860EE
:100F100040F20041C4F20001086840F0800008601F
:100F200040F21442C4F20002106840F00100106068
:100F3000086840F00100086040F23441C4F200014A
:100F4000322008607047000080B584B00020039014
:100F5000FFF794FBFFE740F29800C2F20000007830
:100F60000146029140B1FFE70298012807D0FFE750
:100F70000298022806D008E0FFF74AFD05E0FFF7D7
:100F800059FE02E0FFF7D6FDFFE740F29900C2F2FA
:100F90000000007820B3FFE740F28C00C2F20000AE
:100FA000006858B9FFE7B420019000F01BF80198E1
:100FB00040F28C01C2F2000108600AE000200090BB
:100FC00000F010F8009840F28C01C2F200010860B5
:100FD000FFE740F29901C2F2000100200870FFE72C
:100FE000B9E7000082B001900198B52803D3FFE76C
:100FF000B4200190FFE79DED010AB8EE400A9FED95
:101000000C1A80EE010A9FED0B1A20EE010A30EE59
:10101000010A8DED000A9DED000ABCEEC00A40F207
:101020003440C4F2000080ED000A02B0704700BFF7
:101030000000344300004842F1EE100A4FF6FF7101
:10104000C0F2C03120EA010040F04070E1EE100A29
:10105000704704000800100020004000000100025A
:10106000000400080010020304050608090A0B0C1E
:10107000901000080000002028000000EC0100088B
:10108000B810000828000020800600000C020008AC
:101090000008004800080048000800480008004810
:1010A0000008004800080048000800480008004800
:0810B000000800480008004898
:040000050800018965
:00000001FF
