:020000040800F2
:10000000A00600205502000893020008950200088F
:1000100097020008990200089B02000800000000F7
:100020000000000000000000000000009D02000829
:100030009F02000800000000A1020008E10600087D
:10004000A5020008A5020008A5020008A5020008F4
:10005000A5020008A5020008A5020008A5020008E4
:10006000A5020008A5020008A5020008A5020008D4
:10007000A5020008A5020008A5020008A5020008C4
:10008000A5020008A50200085D030008A5020008FB
:10009000A5020008A5020008A5020008A5020008A4
:1000A000A5020008A5020008A5020008A502000894
:1000B000A5020008A5020008A5020008A502000884
:1000C000A5020008A5020008A5020008A502000874
:1000D000A5020008A5020008A5020008A502000864
:1000E0007D050008A5020008A5020008A502000879
:1000F000A5020008A5020008A5020008A502000844
:10010000A5020008A5020008A5020008A502000833
:10011000A5020008A5020008A5020008A502000823
:10012000A5020008A5020008A5020008A502000813
:10013000A5020008A5020008A5020008A502000803
:10014000A5020008A5020008A5020008A5020008F3
:10015000A5020008A5020008A5020008A5020008E3
:10016000A5020008A5020008A5020008A5020008D3
:10017000A5020008A5020008A50200080000000072
:10018000A5020008A502000800F002F800F052F8ED
:1001900014A696E8000CB244B344DA4501D100F04D
:1001A00049F8BAE80F000FA696E83000A5EB040561
:1001B00004EB0607AAEB0704A7F101074FEA1515A0
:1001C0004FEA3414A4F10104AC4201D300F032F838
:1001D00013F0010F18BFFB1A43F0010300F001F800
:1001E000DBE71847F0090000100A0000103A24BFAE
:1001F00078C878C1FAD8520724BF30C830C144BF8C
:1002000004680C6070470000704700000023002461
:1002100000250026103A28BF78C1FBD8520728BF16
:1002200030C148BF0B6070471FB500F0B6FC1FBD62
:1002300010B510BD00F057F81146FFF7F5FF00F0BC
:1002400097FC00F075F803B4FFF7F2FF03BC00F071
:100250007DF8000017481849184B99423CBF50F8E8
:10026000042B41F8042BF8D3154B16494FF000022C
:100270008B4238BF43F8042BFAD3DFF84C000168F7
:1002800041F470010160BFF34F8FBFF36F8F0F48D0
:100290000047FEE7FEE7FEE7FEE7FEE7FEE7FEE7D4
:1002A000FEE7FEE7FEE7000009480A490A4A0B4B51
:1002B00070470000F80B0008000000202800002014
:1002C00028000020A006002088ED00E08901000839
:1002D000A0000020A0060020A0020020A002002014
:1002E000704770477047754600F02CF8AE46050021
:1002F0006946534620F00700854618B020B5FFF741
:10030000D3FFBDE820404FF000064FF000074FF04C
:1003100000084FF0000BAC46ACE8C009ACE8C009DF
:10032000ACE8C009ACE8C00921F007018D46704770
:1003300010B50446AFF300802046BDE81040FFF73B
:1003400082BF0000004870472800002001491820A3
:10035000ABBEFEE7260002007047000080B5122009
:1003600000F050FB0020C5F20400006840070028A0
:1003700008D5FFE70021C5F20401086840F0040039
:100380000860FFE70020C5F20400006800070028AD
:1003900008D5FFE70021C5F20401086840F0080015
:1003A0000860FFE780BD00000421C4F20101086875
:1003B00040F48070086040F20831C5F2040108681A
:1003C00040F480000860086820F470100860086835
:1003D00040F480300860086820F01F00086008685A
:1003E00040F006000860704780B582B041F24C01D1
:1003F000C4F20201086840F40050086041F22C0188
:10040000C4F20201086840F40050086008680868F7
:1004100020F40050086000F051F8FFF7C5FF00F02D
:1004200089F80C21C5F204010091086820F0180039
:100430000860086820F020000860086820F4005078
:1004400008603022C5F20402106820F00F0010602E
:10045000106820F4F8601060106840F4C0701060FC
:10046000B022C5F20402106820F04000106014228F
:10047000C5F204020192106820F4E01010601068C8
:100480001060106820F46000106010681060086848
:1004900020F4406008600821C5F20401086840F0BB
:1004A00001000860FFE70020C5F204000068C007F3
:1004B00008B9FFE7F7E702B080BD000041F24C0148
:1004C000C4F20201086840F0010008604FF090415A
:1004D000086840F03C0008600C21C4F60001086880
:1004E00020F03C0008602C21C4F60001086840F0B0
:1004F000060008607047000081B08DF803003021CD
:10050000C5F20401086820F4F86008609DF8032033
:10051000086840EA821008609DF80310012000FA84
:1005200001F2B021C5F2040108689043086001B0EF
:100530007047000081B00820C5F204000068800008
:10054000002808D5FFE70821C5F20401086820F05B
:1005500000500860FFE70821C5F20401086840F078
:10056000805008604FF4C8600090FFE70098411E7B
:10057000009108B1FFE7F9E701B0704780B540F29C
:100580001440C4F2010000688004002813D5FFE77E
:1005900040F21441C4F20101086840F400500860C0
:1005A00040F29401C2F20001087880F00100087066
:1005B00000F058FAFFE780BD80B500F099F8FFF72A
:1005C00013FF00F021F800F097FA00F0B7FA00F0FE
:1005D00051FA80BD81B08DF803009DF80300092811
:1005E00010DCFFE79DF8032040F6B430C0F60000B1
:1005F00030F8120040F20001C2F2000151F822105E
:100600008861FFE701B0704783B041F24C01C4F24A
:100610000201086840F00400086000208DF80B001B
:100620008DF80B00FFE79DF80B00092856DCFFE76B
:100630009DF80B1040F20000C2F2000050F82100BB
:1006400001909DF80B1040F6C830C0F60000405CE9
:100650008DF803009DF80B1040F6B430C0F6000092
:1006600030F81100ADF800009DF8030041000320B0
:1006700000FA01F3019A1168994311609DF8031083
:100680004A00012101FA02FC019B1A6842EA0C02AD
:100690001A609DF8032001FA02F3019A5168994308
:1006A00051609DF80310490000FA01F3019A916826
:1006B000994391609DF80310490000FA01F20199F5
:1006C000C8689043C860BDF8000001998862FFE7E0
:1006D0009DF80B0001308DF80B00A4E703B07047C4
:1006E00040F29001C2F200010868013008607047D2
:1006F00083B042F20001C4F20201086820F0070052
:100700000860086840F00200086041F20001C4F28D
:100710000201086840F480700860FFE741F20000C1
:10072000C4F2020000684005002801D4FFE7F5E7A5
:100730001020029041F20401C4F20201086820F086
:10074000F8500860029A086840EA0260086041F2C6
:100750000001C4F20201086820F080700860FFE721
:1007600041F20000C4F2020000688001002801D5B7
:10077000FFE7F5E741F20C01C4F2020101910868BC
:1007800020F003000860086840F002000860086874
:10079000142262F30E2008600868012262F306103A
:1007A0000860086820F0C0600860086840F0807049
:1007B000086041F20001C4F20201086840F0807054
:1007C0000860FFE741F20000C4F202000068800107
:1007D000002801D4FFE7F5E741F20801C4F2020165
:1007E000086820F003000860086840F00300086013
:1007F000FFE741F20800C4F20200006800F00C00BC
:100800000C2801D0FFE7F4E741F20801C4F202012D
:10081000086820F0F0000860086820F4E0600860D4
:10082000086820F46050086041F20001C4F202013F
:10083000086820F080600860FFE741F20000C4F221
:10084000020000684001002801D5FFE7F5E741F20A
:100850001001C4F202010091086820F4FE40086013
:10086000086840F4C0500860086840F40030086030
:10087000086840F48030086041F20001C4F20201CF
:10088000086840F080600860FFE741F20000C4F2B1
:10089000020000684001002801D4FFE7F5E741F2BB
:1008A0008801C4F20201086820F44000086041F2A7
:1008B0006001C4F20201086840F40010086003B04F
:1008C0007047000080B50620FFF716FE0821C5F22C
:1008D0000401086840F004000860FFE740F20030BF
:1008E000C5F2040000684007002801D4FFE7F5E7DF
:1008F0004020C5F2040090ED000AB8EE400A40F234
:100900008800C2F2000080ED000A90ED000A9FED21
:10091000241A80EE010A9FED231A20EE010A40F20C
:100920009C00C2F2000080ED000A90ED000A9FEDED
:100930001E1A20EE010A90ED001A20EE010A90ED39
:10094000002A90ED001A9FED193A21EE031A90ED5E
:10095000003A21EE031A20EE020A30EE011A90ED61
:10096000000A9FED132A20EE020A30EE010A9FEDE5
:10097000111A30EE010A40F29800C2F2000080ED38
:10098000000A90ED000A9FED0C1AB4EE410AF1EE58
:1009900010FA04DDFFE70320FFF71CFEFFE780BD30
:1009A00000F07F4533331340E17AB041CDCC314381
:1009B000CD8CB043295CA5410000484380B5072099
:1009C000FFF79AFD0821C5F20401086840F0040011
:1009D0000860FFE740F20030C5F2040000684007FD
:1009E000002801D4FFE7F5E74020C5F2040090EDB0
:1009F000000AB8EE400A40F28C00C2F2000080ED1E
:100A0000000A80BD81B08DF803009DF90300002825
:100A10000ED4FFE79DF9031001F01F020120904062
:100A20004A094EF28021CEF2000141F82200FFE790
:100A300001B0704781B08DF803009DF903000028D4
:100A40000ED4FFE79DF9031001F01F020120904032
:100A50004A094EF20011CEF2000141F82200FFE7F0
:100A600001B070471421C4F60001086880F020002E
:100A70000860704780B582B041F26001C4F20201A3
:100A8000086840F0010008600320019004200090F5
:100A900000990F2000FA01F3019A0821C4F2010124
:100AA00051F82200984341F82200009A022000FAEF
:100AB00002F3019A51F82200184341F8220040F253
:100AC0000041C4F20101086840F40050086040F29F
:100AD0000841C4F20101086840F40050086040F287
:100AE0000C41C4F20101086820F40050086028207D
:100AF000FFF7A0FF02B080BD41F24C01C4F2020139
:100B0000086840F0010008604FF09041086820F448
:100B100040600860086840F4806008600421C4F602
:100B20000001086820F0200008600C21C4F60001D4
:100B3000086820F4406008607047000041F24C01F2
:100B4000C4F20201086840F00400086040F60001A9
:100B5000C4F60001086820F04060086040F60C010F
:100B6000C4F60001086820F040600860704700008B
:100B700080B582B000200190FFF71EFDFFE740F234
:100B80009400C2F20000007818B9FFE7FFF79AFE60
:100B900002E0FFF713FFFFE7F1E7F1EE100A4FF66F
:100BA000FF71C0F2C03120EA010040F04070E1EE78
:100BB000100A7047040008001000200040000001E7
:100BC0000002000400080010020304050608090AD8
:100BD0000B0C0000F80B00080000002028000000AB
:100BE000EC010008200C0008280000207806000016
:100BF0000C0200080000000000080048000800483F
:100C000000080048000800480008004800080048A4
:100C10000008004800080048000800480008004894
:040000050800018965
:00000001FF
